:1008FD00C100C182010900010800010B00010A03BA
:1008E600D2AFD2A9D2A85389F0438902758C377545
:0708F6008A37D28CC2882270
:0300030002091AD5
:05091A00D200C2A8326A
:03000B0002090ED9
:0C090E00C0D00509A202B39201D0D03283
:10088C001208E6A201300201B350F8A2029201E56F
:10089C0009B50A02C290E509B4640BC200D2A8E4FF
:1008AC00F509D290050BE50BB414D8200022D29197
:1008BC00E50AB40303E4F508E50AB40C0375080172
:1008CC00E508B40102150AE5087002050AE4F50B07
:0A08DC003000B0C291E4F50B80A9D2
:03000000020800F3
:0C080000787FE4F6D8FD758120020847DF
:10080C0002088CE493A3F8E493A34003F68001F26E
:10081C0008DFF48029E493A3F85407240CC8C333ED
:10082C00C4540F4420C8834004F456800146F6DFBC
:10083C00E4800B01020408102040809008FDE47E47
:10084C00019360BCA3FF543F30E509541FFEE493B1
:10085C00A360010ECF54C025E060A840B8E493A378
:10086C00FAE493A3F8E493A3C8C582C8CAC583CAA3
:10087C00F0A3C8C582C8CAC583CADFE9DEE780BE5B
:01090D0000E9
:00000001FF
