:02000000804E30
:0200030001D525
:02000B0001DB17
:1000500075810711B011C511BF11C9EE75F000B55A
:10006000F00280F77E00EA89F0B5F002C290EA75EE
:10007000F064B5F00A7C0075A8837A00D2900BEB8F
:1000800075F00FB5F0D5EC7021D291E988F0B5F09C
:10009000047F008008E98DF0B5F0027F01EF700564
:1000A000097B0080B6197B0080B1C2917B0080ABD8
:1000B00078037903D2917A007B007D0C7F00227552
:1000C000A883C2882275B80222D28C758902758AEB
:0F00D00037758C372275A8827C01320A7E013287
:00000001FF
